:100000000200037581401200D8E582600302006F90
:10001000780079007A007B007C007D00EC4D601C4C
:1000200088828983E493A3A882A9838A828B83F040
:10003000A3AA82AB831CBCFFE31D80E07582007520
:1000400083007C007D00EC4D600AE4F0A31CBCFF43
:10005000F51D80F27582007583007C007D00EC4DFB
:10006000600AE4F0A31CBCFFF51D80F21200D71259
:10007000034580FE4C434420342D6269742074652E
:1000800073743A0048656C6C6F2C20576F726C6407
:10009000210054797065207768617420796F75202C
:1000A00077616E7420746F20646973706C6179205D
:1000B000696E206C696E65203220283136206368B5
:1000C0006172206D6178293A20000A003C4E4F2071
:1000D000464C4F41543E002275A7007597DE759738
:1000E000AD75A71075C12075A70075A90075A90089
:1000F000E5A930E7FB75A90375A903E5A930E7FB7E
:1001000043A41075E10175E20075E3407598108510
:100110008E8E758DE6858D8B53890F438920D28E07
:10012000D29975820022AA82438E407592B8759347
:10013000FF8592948593957591047B00C3EB9A504B
:100140000BE59130E7FB53917F0B80F07591002216
:10015000AA82AB837C007D00C3EC9AED9B502B7E82
:1001600000BE0400501D7582FAC002C003C004C066
:1001700005C006120126D006D005D004D003D00257
:100180000E80DE0CBC00D10D80CE22D2A07582285C
:10019000120126C2A022AA828AE0A2E79290A2E6D9
:1001A0009291A2E59292A2E49293C00212018B7501
:1001B0008228120126D0028AE0A2E39290A2E29263
:1001C00091A2E19292A2E0929302018BAA82D2972D
:1001D0008A82120196900002020150AA82C2978A76
:1001E00082120196900005020150C2A090001412E4
:1001F00001507582331201DB7582331201DB758287
:10020000321201DB7582281201DB75820C1201DBD0
:100210007582011201DB900014020150AA82AB83A7
:10022000ACF07402B522047DC080027D808D82C056
:1002300002C003C0041201DB900005120150D0047B
:10024000D003D0027D007E00ED2AFFEE3BF88C014A
:100250008F82888389F01203ADFF60208F82C002F5
:10026000C003C004C005C0061201CCD006D005D022
:1002700004D003D0020DBD00CF0E80CC3000248D01
:10028000028E03C3EA9410EB64809480501575824B
:1002900020C002C0031201CCD003D0020ABA00E38E
:1002A0000B80E02285822585832685F027E4F528CA
:1002B000F529E52324FFFFE52434FFF879007A00CF
:1002C000C3E99FEA648088F063F08095F05059C0DC
:1002D00002C007C000C0011203FFAB82D001D000F2
:1002E000D007D002BB0A028003BB0D1DE5282525DF
:1002F000FCE5293526FDAE278C828D838EF0E41235
:10030000041285288285298322E92525FCEA3526E1
:10031000FDAE278C828D838EF0EB12041209B9009A
:10032000010A89288A298098E5282525FAE52935B2
:1003300026FBAC278A828B838CF0E412041285237F
:1003400082852483221201EA752201D20090007472
:1003500075F08012021C752202D20090008475F0A4
:100360008012021C7492C0E07400C0E07480C0E08F
:100370001203DE158115811581752311E4F5249092
:10038000002A75F0401202A474CAC0E07400C0E0F4
:100390007480C0E01203DE1581158115817522027B
:1003A000D20090002A75F04012021C80B720F7148A
:1003B00030F6148883A88220F507E6A883758300A9
:1003C00022E280F7E49322E022020A4B858218851C
:1003D000831985F01A85091B9003C90204B4C0086B
:1003E000858108E50824FBF51BE50824FBF8861841
:1003F00008861908861A9003C91204B4D00822107E
:10040000980280FBAA998A82C002120A4BD0028A03
:10041000822220F71030F6118883A88220F507F693
:10042000A88375830022F280F7F022AA82743CC070
:10043000E07404C0E0C00AC00B8A82220511E4B552
:100440001102051222AA8274302AFA24C6500A74B4
:10045000072AFA3001034302208A8202042BE58234
:10046000FAC4540FF582C002120445D002740F5A28
:10047000F582020445AA0CAB0DAC0EAD0FAE1075A3
:100480001720EE2EFEED235401FF4206EA2AFAEB76
:1004900033FBEC33FCED33FDC3EE95134008EEC3A4
:1004A0009513FE430201D517D98A0C8B0D8C0E8D46
:1004B0000F8E102285820A85830BE4F511F512AAAE
:1004C00018AB19AC1A8A828B838CF01203ADFD74C1
:1004D000012AF518E43BF5198C1AEDFA7003020AAB
:1004E00044BA25028003020A3CC205C206C207C202
:1004F00008C209C20AC20BC20CC202C203C20475FE
:1005000013007514007515FFAB18AC19AD1A8B826A
:100510008C838DF01203ADFAA3AB82AC838B188C65
:10052000198D1ABA25078A8212042B80928A06BE78
:100530003000402E8A06EE24C6402774FFB51513FE
:10054000E51475F00AA4FEEA24D02EF51470BFD28B
:100550000680BBE51575F00AA4FEEA24D02EF51539
:1005600080ACBA2E0A74FFB515A4751500809F8A59
:1005700006BE6100400E8A06EE248540075302DF66
:10058000D2018002C201BA20028075BA230302069A
:100590000FBA2A03020614BA2B02805FBA2D02801A
:1005A00055BA4202805FBA4303020659BA440302B5
:1005B0000794BA45030207AEBA46030207AABA4730
:1005C000030207B2BA4903020794BA4C02803BBA4D
:1005D0004E030207B6BA4F0302079BBA5003020745
:1005E0002DBA530302067DBA55030207A0BA580379
:1005F0000207A50207E0D20502050ED20702050E8A
:10060000D20802050ED20A02050ED20B02050ED246
:100610000C02050E74FFB51520300A0BE51B14F80B
:10062000881B861402050EE51B24FEF8881B86062F
:10063000088607188E1402050E300A0BE51B14F805
:10064000881B861502050EE51B24FEF8881B86060E
:10065000088607188E1502050E300A0AE51B14F8E5
:10066000881B8602800FE51B24FEF8881B86030882
:100670008604188B028A8212042B0207E5E51B24EC
:10068000FDF8881B860308860408860518188B0C5D
:100690008C0D8D0E8B828C838DF0120A60AB82AC38
:1006A000838B1674FFB5150385161520051DC3E54C
:1006B0001695145016E514C39516F514AB141514BD
:1006C000EB600875822012042B80F1850C82850D69
:1006D00083850EF01203ADFBFA6029AB151515C327
:1006E000E464808BF063F08095F050188A821204E5
:1006F0002BAB0CAC0DAD0E0BBB00010C8B0C8C0DA1
:100700008D0E80C72005030207E5C3E5169514404A
:10071000030207E5E514C39516F514AB141514EBA5
:1007200070030207E575822012042B80EEE51B247E
:10073000FDF8881B860308860408860518188B0CAC
:100740008C0D8D0EE50EFB30E7047A438013EB54DD
:100750006060047A50800AEB30E6047A4980027ABD
:10076000588A82C00212042B75823A12042B7582B9
:100770003012042B75827812042BD002BA49028001
:100780000BBA50028006850D8212045E850C82121F
:10079000045E8051D20975130A804A75130880459A
:1007A00075130A8040751310803BD2028037D20344
:1007B0008033D204802FE51B24FDF8881B860308B4
:1007C000860408860518188B0C8C0D8D0E8B828C78
:1007D000838DF0E511120412A3E5121204128005B4
:1007E0008A8212042B20020620030330045AE51BE0
:1007F00024FCF8881B8603088604088605088606FC
:100800001818188B0C8C0D8D0E8E0F750CCC750D69
:1008100000750E80850C1C850D1D850E1E7401252E
:100820001CFEE4351DFFAB1E8E0C8F0D8B0E851C40
:1008300082851D83851EF01203ADFBFA700302044E
:10084000BF8A8212042B80CCE51370030204BF7BA5
:1008500040300A2BE51B14F8881BE6FC3395E0FDBD
:10086000FEFF8C0C8D0D8E0E8F0F20095EAC0C7D63
:10087000007E007F008C0C8D0D8E0E8F0F804C3013
:100880000B1FE51B24FCF8881B86040886050886D8
:10089000060886071818188C0C8D0D8E0E8F0F8089
:1008A0002AE51B24FEF8881B860408860518ED330C
:1008B00095E0FEFF8C0C8D0D8E0E8F0F20090CAC79
:1008C0000CAD0D7E007F008E0E8F0F300C43E50CBB
:1008D000450D450E450F60397408B5130C7582300F
:1008E000C00312042BD00380287410B51323758223
:1008F00030C00312042BD00330010C758278C00382
:1009000012042BD003800A758258C00312042BD026
:1009100003300925AC0CAD0DAE0EE50FFF30E71727
:10092000C3E49CFCE49DFDE49EFEE49FFF8C0C8DE3
:100930000D8E0E8F0F8002C209751600D20D8B002E
:10094000751000C000120475D000200D0DE510C414
:10095000FCE6FD4CF61888038002A6100516B20DC1
:10096000E50C450D450E450F70D68803E514700360
:1009700075140120061A200517E51604FCC395140A
:10098000500E758220C00312042BD003151480E989
:1009900030090E75822DC00312042BD0031514806C
:1009A00024E516602030070E75822BC00312042B3D
:1009B000D0031514800F30080C758220C003120478
:1009C0002BD003151420051EAC141514C3E5169C7A
:1009D00050273006047C3080027C208C82C00312B9
:1009E000042BD00380E2C3E51695145009E514C327
:1009F0009516F51480037514008B00AB161516EBD5
:100A00006022B20D200D0A08E6C4540FFB8B108043
:100A1000078603740F5BF510851082C00012044531
:100A2000D00080D72005030204BFAB141514EB706F
:100A3000030204BF75822012042B80EE8A82120406
:100A40002B0204BF85118285128322AA82BA0A086A
:100A500010990280FB75990D10990280FB8A9922EA
:100A6000AA82AB83ACF07D007E008A828B838CF0FF
:100A70001203ADFFA3AA82AB83EF60070DBD00EAAE
:100A80000E80E78D828E83220000000000000000AF
:00000001FF
