:10000000020003758128120119E582600302006F66
:10001000780079007A007B007C007D00EC4D601C4C
:1000200088828983E493A3A882A9838A828B83F040
:10003000A3AA82AB831CBCFFE31D80E07582007520
:1000400083007C007D00EC4D600AE4F0A31CBCFF43
:10005000F51D80F27582007583007C007D00EC4DFB
:10006000600AE4F0A31CBCFFF51D80F21201181217
:1000700001D980FE1B5B324A0045464D382046724E
:10008000657175656E6379206D6561737572656DF7
:10009000656E74207573696E672054696D65722F83
:1000A000436F756E74657220302E0A46696C653A2E
:1000B0002025730A436F6D70696C65643A2025735F
:1000C0002C2025730A0A00443A5C436F64696E670A
:1000D0005C323032365C3239315C6C6162345C46A1
:1000E00072657145464D382E630046656220323098
:1000F00020323032360031353A30383A3230000D65
:10010000663D256C75487A001B5B304B003C4E4FBA
:1001100020464C4F41543E002275A7007597DE756E
:1001200097AD43FF8075EF0275A71075C12075A7C5
:100130000075A90075A900E5A930E7FB75A903754D
:10014000A903E5A930E7FB43A41075E10175E210AE
:1001500075E340759810858E8E758DE6858D8B5371
:10016000890F438920D28ED29975820022AA8243B8
:100170008E407592B87593FF85929485939575918D
:10018000047B00C3EB9A5012E59130E7FB53917F5B
:10019000108D02800205090B80E975910022AA8268
:1001A000AB83BA0004BB0001227582F9C002C00310
:1001B00012016D7582F912016D7582F912016D756A
:1001C00082FA12016DD003D0021ABAFF011B80D24D
:1001D0005389F0438905C28C221201D09001F41298
:1001E000019E7474C0E07400C0E07480C0E012022C
:1001F000CA15811581158174F6C0E07400C0E074E1
:1002000080C0E074EAC0E07400C0E07480C0E074B4
:10021000C7C0E07400C0E07480C0E07479C0E074CE
:1002200000C0E07480C0E01202CAE58124F4F581C8
:10023000758A00758C00750900C28DD28C9003E818
:1002400012019EC28CAA097B008B058A047B007A6E
:1002500000AE8C7F00780088018F008E077E00EE54
:100260002AFAEF3BFBE83CFCE93DFDAE8AE4FF33B4
:1002700095E0F8F9EE2AFAEF3BFBE83CFCE93DFD9E
:10028000C002C003C004C00574FFC0E07400C0E039
:100290007480C0E01202CAE58124F9F5817408C0B7
:1002A000E07401C0E07480C0E01202CA15811581BB
:1002B000158102023002090B85821985831A85F0A7
:1002C0001B850A1C9002B5020374C008858108E5ED
:1002D0000824FBF51CE50824FBF8861908861A0893
:1002E000861B9002B5120374D00822AA8274FCC047
:1002F000E07402C0E0C00BC00C8A82220512E4B593
:100300001202051322AA8274302AFA24C6500A74F3
:10031000072AFA3000034302208A820202EBE582B8
:10032000FAC4540FF582C002120305D002740F5AAA
:10033000F582020305AA0DAB0EAC0FAD10AE117520
:100340001820EE2EFEED235401FF4206EA2AFAEBB6
:1003500033FBEC33FCED33FDC3EE95144008EEC3E4
:100360009514FE430201D518D98A0D8B0E8C0F8D82
:10037000108E112285820B85830CE4F512F513AAE9
:1003800019AB1AAC1B8A828B838CF0120920FD7486
:10039000012AF519E43BF51A8C1BEDFA70030209EA
:1003A00004BA250280030208FCC204C205C206C2C8
:1003B00007C208C209C20AC20BC201C202C2037547
:1003C00014007515007516FFAB19AC1AAD1B8B82A6
:1003D0008C838DF0120920FAA3AB82AC838B198C2D
:1003E0001A8D1BBA25078A821202EB80928A06BEFA
:1003F0003000402E8A06EE24C6402774FFB516133F
:10040000E51575F00AA4FEEA24D02EF51570BFD2CA
:100410000580BBE51675F00AA4FEEA24D02EF51679
:1004200080ACBA2E0A74FFB516A4751600809F8A98
:1004300006BE6100400E8A06EE248540075302DFA7
:10044000D2008002C200BA20028075BA23030204DF
:10045000CFBA2A030204D4BA2B02805FBA2D0280DD
:1004600055BA4202805FBA4303020519BA44030237
:100470000654BA450302066EBA460302066ABA4734
:1004800003020672BA4903020654BA4C02803BBA10
:100490004E03020676BA4F0302065BBA500302050A
:1004A000EDBA530302053DBA5503020660BA58037C
:1004B0000206650206A0D2040203CED2060203CED3
:1004C000D2070203CED2090203CED20A0203CED251
:1004D0000B0203CE74FFB5162030090BE51C14F88F
:1004E000881C86150203CEE51C24FEF8881C8606AF
:1004F000088607188E150203CE30090BE51C14F888
:10050000881C86160203CEE51C24FEF8881C86068D
:10051000088607188E160203CE30090AE51C14F867
:10052000881C8602800FE51C24FEF8881C860308C0
:100530008604188B028A821202EB0206A5E51C24AF
:10054000FDF8881C860308860408860518188B0D9C
:100550008C0E8D0F8B828C838DF0120955AB82AC83
:10056000838B1774FFB5160385171620041DC3E58A
:100570001795155016E515C39517F515AB151515F7
:10058000EB60087582201202EB80F1850D82850EEA
:1005900083850FF0120920FBFA6029AB161516C3EC
:1005A000E464808BF063F08095F050188A82120228
:1005B000EBAB0DAC0EAD0F0BBB00010C8B0D8C0E1D
:1005C0008D0F80C72004030206A5C3E517951540CB
:1005D000030206A5E515C39517F515AB151515EB23
:1005E00070030206A57582201202EB80EEE51C2442
:1005F000FDF8881C860308860408860518188B0DEC
:100600008C0E8D0FE50FFB30E7047A438013EB541B
:100610006060047A50800AEB30E6047A4980027AFE
:10062000588A82C0021202EB75823A1202EB75827E
:10063000301202EB7582781202EBD002BA490280C6
:100640000BBA50028006850E8212031E850D82129F
:10065000031E8051D20875140A804A75140880451B
:1006600075140A8040751410803BD2018037D20285
:100670008033D203802FE51C24FDF8881C860308F4
:10068000860408860518188B0D8C0E8D0F8B828CB6
:10069000838DF0E51212093CA3E51312093C800595
:1006A0008A821202EB20010620020330035AE51C65
:1006B00024FCF8881C86030886040886050886063C
:1006C0001818188B0D8C0E8D0F8E10750D0D750E64
:1006D00001750F80850D1D850E1E850F1F74012568
:1006E0001DFEE4351EFFAB1F8E0D8F0E8B0F851D7B
:1006F00082851E83851FF0120920FBFA7003020316
:100700007F8A821202EB80CCE514700302037F7BA8
:100710002830092BE51C14F8881CE6FC3395E0FD15
:10072000FEFF8C0D8D0E8E0F8F1020085EAC0D7DA0
:10073000007E007F008C0D8D0E8E0F8F10804C3050
:100740000A1FE51C24FCF8881C8604088605088618
:10075000060886071818188C0D8D0E8E0F8F1080C6
:100760002AE51C24FEF8881C860408860518ED334B
:1007700095E0FEFF8C0D8D0E8E0F8F1020080CACB7
:100780000DAD0E7E007F008E0F8F10300B43E50DF8
:10079000450E450F451060397408B5140C7582304C
:1007A000C0031202EBD00380287410B514237582A5
:1007B00030C0031202EBD00330000C758278C00306
:1007C0001202EBD003800A758258C0031202EBD0EC
:1007D00003300825AC0DAD0EAE0FE510FF30E71766
:1007E000C3E49CFCE49DFDE49EFEE49FFF8C0D8D24
:1007F0000E8E0F8F108002C208751700D20C8B006E
:10080000751100C000120335D000200C0DE511C495
:10081000FCE6FD4CF61888038002A6110517B20C01
:10082000E50D450E450F451070D68803E51570039C
:1008300075150120051A200417E51704FCC395154A
:10084000500E758220C0031202EBD003151580E90B
:1008500030080E75822DC0031202EBD003151580EF
:1008600024E517602030060E75822BC0031202EBC0
:10087000D0031515800F30070C758220C0031202BB
:10088000EBD003151520041EAC151515C3E5179CF8
:1008900050273005047C3080027C208C82C00312FB
:1008A00002EBD00380E2C3E51795155009E515C3A7
:1008B0009517F51580037515008B00AB171517EB11
:1008C0006022B20C200C0A08E6C4540FFB8B118086
:1008D000078603740F5BF511851182C000120305B2
:1008E000D00080D720040302037FAB151515EB70F1
:1008F0000302037F7582201202EB80EE8A821202CD
:10090000EB02037F85128285138322AA82BA0A082A
:1009100010990280FB75990D10990280FB8A99222B
:1009200020F71430F6148883A88220F507E6A88300
:1009300075830022E280F7E49322E02220F7103052
:10094000F6118883A88220F507F6A8837583002214
:10095000F280F7F022AA82AB83ACF07D007E008AA1
:10096000828B838CF0120920FFA3AA82AB83EF60F5
:10097000070DBD00EA0E80E78D828E832200000005
:00000001FF
