:10000000020003758163120119E582600302006F2B
:10001000780079007A007B007C007D00EC4D601C4C
:1000200088828983E493A3A882A9838A828B83F040
:10003000A3AA82AB831CBCFFE31D80E07582007520
:1000400083007C007D00EC4D600AE4F0A31CBCFF43
:10005000F51D80F27582007583007C007D00EC4DFB
:10006000600AE4F0A31CBCFFF51D80F21201181217
:1000700004AF80FE1B5B324A0045464D3820467275
:10008000657175656E6379206D6561737572656DF7
:10009000656E74207573696E672054696D65722F83
:1000A000436F756E74657220302E0A46696C653A2E
:1000B0002025730A436F6D70696C65643A2025735F
:1000C0002C2025730A0A00443A5C436F64696E670A
:1000D0005C323032365C3239315C6C6162345C6C7B
:1000E0006162342E63004665622032322032303243
:1000F000360031373A35323A33380043203D20005C
:10010000206E460025730A001B5B304B003C4E4FAF
:1001100020464C4F41543E002275A7007597DE756E
:1001200097AD43FF8075EF0275A71075C12075A7C5
:100130000075A90075A900E5A930E7FB75A903754D
:10014000A903E5A930E7FB43A41075E10175E210AE
:1001500075E340759810858E8E758DE6858D8B5371
:10016000890F438920D28ED29975820022AA8243B8
:100170008E407592B87593FF85929485939575918D
:10018000047B00C3EB9A5012E59130E7FB53917F5B
:10019000108D02800205220B80E975910022AA824F
:1001A000AB83BA0004BB0001227582F9C002C00310
:1001B00012016D7582F912016D7582F912016D756A
:1001C00082FA12016DD003D0021ABAFF011B80D24D
:1001D0005389F0438905C28C22D2A075822812016E
:1001E0006DC2A022AA828AE0A2E79290A2E6929132
:1001F000A2E59292A2E49293C0021201D9758228DC
:1002000012016DD0028AE0A2E39290A2E29291A242
:10021000E19292A2E092930201D9AA82D2978A82B5
:100220001201E490000202019EAA82C2978A821201
:1002300001E490000502019EC2A090001412019EEC
:1002400075823312022975823312022975823212A5
:10025000022975822812022975820C1202297582E0
:100260000112022990001402019EAA82AB83ACF015
:100270007402B523047DC080027D808D82C002C0DF
:1002800003C00412022990000512019ED004D0037D
:10029000D0027D007E00ED2AFFEE3BF88C018F82BC
:1002A000888389F0120640FF60208F82C002C0035D
:1002B000C004C005C00612021AD006D005D004D072
:1002C00003D0020DBD00CF0E80CC3000248D028EF5
:1002D00003C3EA9410EB648094805015758220C0AB
:1002E00002C00312021AD003D0020ABA00E30B8044
:1002F000E02285822785832885F029F52A1208F8CF
:10030000AE82AF838E028F03EA4B7006752B3002EC
:10031000040C753B00EA4B6049E53B242BF875580B
:100320000AE4F5598A828B83C002C003C006C00765
:10033000C0001207E9AD82D000D007D006D003D0AC
:100340000274302DF675580AE4F5598A828B83C001
:1003500006C0071206CAAA82AB83D007D006053BA7
:1003600080B3C006C007C027C028C029C02A90009B
:100370000075F0C874421206F3AC82AD83AEF0FF94
:10038000E58124FCF5818C828D838EF0EFC006C060
:10039000071208F8AC82AD83D007D0068E588F596B
:1003A000900064C004C005120796AE82AF83D005EA
:1003B000D004ECC39EFAED9FFBD007D006AC3B7D8A
:1003C00002EC242BF875580AE4F5598A828B83C015
:1003D00002C003C004C005C0001207E9AE82D0000D
:1003E000D005D004D003D00274302EF675580AE43C
:1003F000F5598A828B83C004C0051206CAAA82AB53
:1004000083D005D0040CDDB9EC14F53CE53C24FEAA
:10041000FB7C00EB20E71EEC2524FDE43525FEAF38
:1004200026EB242BF886028D828E838FF0EA120849
:10043000DF0C1B80DEEC2524FAE43525FBAD268A93
:10044000828B838DF0742E1208DFEC3395E0FA7402
:10045000012CFBE43AFDEB2524FBED3525FDAE2612
:10046000E53C242BF886078B828D838EF0EF1208F3
:10047000DF74022CFBE43AFDEB2524FBED3525FD72
:10048000AE26E53C14242BF886078B828D838EF0F4
:10049000EF1208DF74032CFCE43AFAEC2524FCEAA2
:1004A0003525FAAB268C828A838BF0E40208DF12B2
:1004B00001D01202389001F412019E7474C0E074ED
:1004C00000C0E07480C0E01207C815811581158155
:1004D00074F2C0E07400C0E07480C0E074E6C0E074
:1004E0007400C0E07480C0E074C7C0E07400C0E075
:1004F0007480C0E07479C0E07400C0E07480C0E033
:100500001207C8E58124F4F581758A00758C0075A1
:100510002200C28DD28C9003E812019EC28CAA22C6
:100520007B008B058A047B007A00AE8C7F0078000C
:1005300088018F008E077E00EE2AFAEF3BFBE83C35
:10054000FCE93DFDAE8AE4FF3395E0F8F9EE2AF5CB
:1005500058EF3BF559E83CF55AE93DF55B907317C8
:10056000E4F5F012065C1208CCAA82AB83ACF0FD75
:10057000C002C003C004C00590C80075F0AF744944
:10058000120903AA82AB83ACF0FDE58124FCF5815E
:10059000C002C003C004C00590000075F07A744426
:1005A0001206F3AA82AB83ACF0FDE58124FCF58151
:1005B00075243D7525007526408A828B838CF0ED6D
:1005C0001202F27558FB755900755A8090004775F4
:1005D000F04012088C75583D755900755A409000CE
:1005E0004775F040120836755800755901755A80E4
:1005F00090004775F040120836752301D200900034
:100600004775F04012026A7447C0E07400C0E0749D
:1006100040C0E07404C0E07401C0E07480C0E01227
:1006200007C8E58124FAF5817408C0E07401C0E0D0
:100630007480C0E01207C815811581158102050973
:1006400020F71430F6148883A88220F507E6A883E3
:1006500075830022E280F7E49322E022AAF0FBE512
:10066000828558F0A4FCADF0E5838558F0A42DFDFB
:10067000E435F0FEE5828559F0A42DFDE5F03EFE5F
:10068000E433FFEA8558F0A42EFEE5F03FFFE58352
:100690008559F0A42EFEE5F03FFFE582855AF0A4CF
:1006A0002EFEE5F03FFFEB8558F0A42FFFEA8559B9
:1006B000F0A42FFFE583855AF0A42FFFE582855B28
:1006C000F0A42F8EF08D838C82227A10E4FBFCE55F
:1006D0008225E0F582E58333F583EB33FBEC33FCD5
:1006E000EB9558F5F0EC95594006FCABF0438201D0
:1006F000DADD22120AA4BC0003020A43EF60FA30DA
:10070000D502B2D1E583B4FF03020A59E582B4FFF2
:1007100003020A59258340072482400B020A43241E
:1007200083145003020A59F582EA8DF0A4A8F0EA76
:100730008EF0A428F8E435F0F9EB8DF0A428E93523
:10074000F0F9E433CA8FF0A429F9EA35F0FAEBF8AE
:100750008EF0A429F9EA35F0FAE433FBEC8DF0A42D
:1007600029F9EA35F0FAE43BFBE88FF0A42AFAEB2A
:1007700035F0FBE433CCFD8EF0A42AFAEB35F0FB28
:10078000E43CFCED8FF0A42BFBEC35F0FC20E70300
:10079000120A71020A22E5828558F0A4C582C0F0CF
:1007A0008559F0A4D0F025F0C5838558F0A42583A1
:1007B000F583220210F285821885831985F01A8547
:1007C000091B9007B3020B5BC008858108E508246C
:1007D000FBF51BE50824FBF8861808861908861A1D
:1007E0009007B3120B5BD00822E558455960467A52
:1007F00001E55825E0F558E559334012F559E582F1
:100800009558E583955940030A80E6C3E55913F5E9
:1008100059E55813F558C3E5829558F5F0E58395E9
:10082000594005F58385F082C3E55913F559E5581C
:1008300013F558DAE12285825B85835C85F05DAD36
:100840005BAE5CAF5D8D828E838FF01206406007D9
:100850000DBD00F10E80EEA858A959AA5A8E048F3A
:1008600003888289838AF0120640FEA3A882A983A6
:100870008D828C838BF0EE1208DFA3AD82AC83EE09
:1008800070DF855B82855C83855DF02285825B8578
:10089000835C85F05DAD58AE59AF5AA85BA95CAAE0
:1008A0005D8D828E838FF0120640FBA3AD82AE83F6
:1008B000888289838AF0EB1208DFA3A882A983EBE0
:1008C00070DF855B82855C83855DF022FCABF0AADE
:1008D00083A982749EC2D1F582120A71020A222073
:1008E000F71030F6118883A88220F507F6A88375E3
:1008F000830022F280F7F0227F8E121109F58385A2
:10090000F08222120AA430D502B2D1BF0009BC0085
:1009100003020A66020A59BC0003020A43E583B4D3
:10092000FF0BE582B4FF03020A66020A43E582B4C4
:10093000FF03020A59C395835007247F400B020A24
:10094000432480145003020A59C0E0E4CCCBCAF916
:100950008D588E598F5AEF54F0C4F55B7583068518
:100960005BF0EB84F582E9C4F9EAC4FAEBC4FBEC72
:10097000540FC47803D6FC18EBD6FB18EAD6FA85D8
:1009800082F0EDA4A8F0FD8582F0EEA428FEE43507
:10099000F0F88582F0EFA428FFE435F0F8E99DF93E
:1009A000EA9EFAEB9FFBEC98FCAD58AE59AF5A307B
:1009B000E7101582E92DF9EA3EFAEB3FFBE43CFC37
:1009C00080EDC082D58398C3E933F9EA33FAEB337B
:1009D000FBEC33FCC3E99DEA9EEB9FEC9400B3E48F
:1009E00013F9D002D0E0C44AFAD003D0E0C44BFBE4
:1009F000D004D0E0F5F0540FC44CFCD08215823006
:100A0000F40FD3EC13FCEB13FBEA13FAE913F9052B
:100A100082E930E70A74012AFAE43BFBE43CFC0279
:100A20000A3AB98003EA13B34010EA2401FAE43B1E
:100A3000FBE43CFC50047C800582BC000EBB000B38
:100A4000BA0008E4F5F0F583F58222A2D1E582131D
:100A50008CF092F78B838A8222E4F583F58275F01D
:100A600080F4A2D11322E4F583F58275F0C0747F7F
:100A7000227804EC7011E58224F8500AF582E4C96A
:100A8000CACBFCD8EF22EC7820058220E713D58270
:100A90000122C3E933F9EA33FAEB33FBEC33FCD838
:100AA000EA158222AA82AB83A2F73392D16002D2E6
:100AB000F7F582ACF0E58124F9F8E6FD08E6FE08DA
:100AC00086F008E6A2F73392D56002D2F7F583AF3D
:100AD000F022AA8274E3C0E0740AC0E0C00AC00B2E
:100AE0008A82220511E4B51102051222AA8274300D
:100AF0002AFA24C6500A74072AFA30010343022056
:100B00008A82020AD2E582FAC4540FF582C0021228
:100B10000AECD002740F5AF582020AECAA0CAB0D53
:100B2000AC0EAD0FAE10751720EE2EFEED23540166
:100B3000FF4206EA2AFAEB33FBEC33FCED33FDC34C
:100B4000EE95134008EEC39513FE430201D517D965
:100B50008A0C8B0D8C0E8D0F8E102285820A858358
:100B60000BE4F511F512AA18AB19AC1A8A828B8323
:100B70008CF0120640FD74012AF518E43BF5198C3F
:100B80001AEDFA70030210EBBA250280030210E39B
:100B9000C205C206C207C208C209C20AC20BC20C01
:100BA000C202C203C2047513007514007515FFABB1
:100BB00018AC19AD1A8B828C838DF0120640FAA303
:100BC000AB82AC838B188C198D1ABA25078A8212D6
:100BD0000AD280928A06BE3000402E8A06EE24C6D3
:100BE000402774FFB51513E51475F00AA4FEEA2436
:100BF000D02EF51470BFD20680BBE51575F00AA49F
:100C0000FEEA24D02EF51580ACBA2E0A74FFB51575
:100C1000A4751500809F8A06BE6100400E8A06EE0C
:100C2000248540075302DFD2018002C201BA2002AC
:100C30008075BA2303020CB6BA2A03020CBBBA2B86
:100C400002805FBA2D028055BA4202805FBA430328
:100C5000020D00BA4403020E3BBA4503020E55BA18
:100C60004603020E51BA4703020E59BA4903020E57
:100C70003BBA4C02803BBA4E03020E5DBA4F0302F0
:100C80000E42BA5003020DD4BA5303020D24BA55D2
:100C900003020E47BA5803020E4C020E87D2050219
:100CA0000BB5D207020BB5D208020BB5D20A020B64
:100CB000B5D20B020BB5D20C020BB574FFB51520E3
:100CC000300A0BE51B14F8881B8614020BB5E51BD4
:100CD00024FEF8881B8606088607188E14020BB5BA
:100CE000300A0BE51B14F8881B8615020BB5E51BB3
:100CF00024FEF8881B8606088607188E15020BB599
:100D0000300A0AE51B14F8881B8602800FE51B24B5
:100D1000FEF8881B8603088604188B028A82120A52
:100D2000D2020E8CE51B24FDF8881B86030886047E
:100D300008860518188B0C8C0D8D0E8B828C838D7C
:100D4000F012112EAB82AC838B1674FFB5150385A0
:100D5000161520051DC3E51695145016E514C39508
:100D600016F514AB141514EB6008758220120AD224
:100D700080F1850C82850D83850EF0120640FBFA0A
:100D80006029AB151515C3E464808BF063F0809582
:100D9000F050188A82120AD2AB0CAC0DAD0E0BBB10
:100DA00000010C8B0C8C0D8D0E80C7200503020EEC
:100DB0008CC3E51695144003020E8CE514C39516FA
:100DC000F514AB141514EB7003020E8C758220120F
:100DD0000AD280EEE51B24FDF8881B8603088604F2
:100DE00008860518188B0C8C0D8D0EE50EFB30E770
:100DF000047A438013EB546060047A50800AEB302D
:100E0000E6047A4980027A588A82C002120AD275B0
:100E1000823A120AD2758230120AD2758278120A88
:100E2000D2D002BA4902800BBA50028006850D82E8
:100E3000120B05850C82120B058051D20975130A1D
:100E4000804A751308804575130A80407513108019
:100E50003BD2028037D2038033D204802FE51B249B
:100E6000FDF8881B860308860408860518188B0C75
:100E70008C0D8D0E8B828C838DF0E5111208DFA313
:100E8000E5121208DF80058A82120AD220020620AB
:100E9000030330045AE51B24FCF8881B86030886EC
:100EA000040886050886061818188B0C8C0D8D0E04
:100EB0008E0F750C0D750D01750E80850C1C850D42
:100EC0001D850E1E7401251CFEE4351DFFAB1E8E14
:100ED0000C8F0D8B0E851C82851D83851EF01206DE
:100EE00040FBFA7003020B668A82120AD280CCE5BC
:100EF000137003020B667B63300A2BE51B14F88822
:100F00001BE6FC3395E0FDFEFF8C0C8D0D8E0E8FE5
:100F10000F20095EAC0C7D007E007F008C0C8D0DD7
:100F20008E0E8F0F804C300B1FE51B24FCF8881BA6
:100F300086040886050886060886071818188C0C8B
:100F40008D0D8E0E8F0F802AE51B24FEF8881B86E0
:100F50000408860518ED3395E0FEFF8C0C8D0D8E90
:100F60000E8F0F20090CAC0CAD0D7E007F008E0E95
:100F70008F0F300C43E50C450D450E450F6039745D
:100F800008B5130C758230C003120AD2D003802832
:100F90007410B51323758230C003120AD2D0033007
:100FA000010C758278C003120AD2D003800A7582C0
:100FB00058C003120AD2D003300925AC0CAD0DAED7
:100FC0000EE50FFF30E717C3E49CFCE49DFDE49EB3
:100FD000FEE49FFF8C0C8D0D8E0E8F0F8002C209D8
:100FE000751600D20D8B00751000C000120B1CD0BE
:100FF00000200D0DE510C4FCE6FD4CF618880380BA
:1010000002A6100516B20DE50C450D450E450F70F4
:10101000D68803E514700375140120061A200517FD
:10102000E51604FCC39514500E758220C003120A05
:10103000D2D003151480E930090E75822DC0031239
:101040000AD2D00315148024E516602030070E75EF
:10105000822BC003120AD2D0031514800F30080C63
:10106000758220C003120AD2D003151420051EACCD
:10107000141514C3E5169C50273006047C308002FA
:101080007C208C82C003120AD2D00380E2C3E51612
:1010900095145009E514C39516F5148003751400D2
:1010A0008B00AB161516EB6022B20D200D0A08E678
:1010B000C4540FFB8B1080078603740F5BF51085FB
:1010C0001082C000120AECD00080D7200503020B6A
:1010D00066AB141514EB7003020B66758220120ABE
:1010E000D280EE8A82120AD2020B668511828512A4
:1010F0008322AA82BA0A0810990280FB75990D1002
:10110000990280FB8A99227F9E12115630D10302E8
:101110000A43C3EF9582500974FFF5F0F583F58219
:1011200022790012116889828A838BF0EC22AA82CC
:10113000AB83ACF07D007E008A828B838CF012063C
:1011400040FFA3AA82AB83EF60070DBD00EA0E80CB
:10115000E78D828E8322AA82AB83A2F73392D1607D
:1011600002D2F7F582ACF0226040F825825002747A
:10117000FFF582E824F8501ECCCBCAF9E4CC24F861
:101180005014CBCAF9E4CB24F8500BCAF9E4CA24B2
:10119000F8500379002224086010F8C3EC13FCEB2C
:1011A00013FBEA13FAE913F9D8F12200000000005A
:00000001FF
