:10000000020003758167120112E582600302006F2E
:10001000780079007A007B007C007D00EC4D601C4C
:1000200088828983E493A3A882A9838A828B83F040
:10003000A3AA82AB831CBCFFE31D80E07582007520
:1000400083007C007D00EC4D600AE4F0A31CBCFF43
:10005000F51D80F27582007583007C007D00EC4DFB
:10006000600AE4F0A31CBCFFF51D80F2120111121E
:1000700004A880FE1B5B324A0045464D382046727C
:10008000657175656E6379206D6561737572656DF7
:10009000656E74207573696E672054696D65722F83
:1000A000436F756E74657220302E0A46696C653A2E
:1000B0002025730A436F6D70696C65643A2025735F
:1000C0002C2025730A0A00443A5C436F64696E670A
:1000D0005C323032365C3239315C6C6162345C6C7B
:1000E0006162342E63004665622032332032303242
:1000F000360031343A31383A3337002566206D48BE
:100100000A000D663D256C75487A0A001B5B304B72
:10011000002275A7007597DE7597AD43FF8075EFD8
:100120000275A71075C12075A70075A90075A900F3
:10013000E5A930E7FB75A90375A903E5A930E7FB3D
:1001400043A41075E10175E21075E34075981085C0
:100150008E8E758DE6858D8B53890F438920D28EC7
:10016000D29975820022AA82438E407592B8759307
:10017000FF8592948593957591047B00C3EB9A500B
:1001800012E59130E7FB53917F108D02800205222A
:100190000B80E975910022AA82AB83BA0004BB00F0
:1001A00001227582F9C002C0031201667582F9123C
:1001B00001667582F91201667582FA120166D00332
:1001C000D0021ABAFF011B80D25389F0438905C2BD
:1001D0008C22D2A0758228120166C2A022AA828A2D
:1001E000E0A2E79290A2E69291A2E59292A2E49216
:1001F00093C0021201D2758228120166D0028AE0F1
:10020000A2E39290A2E29291A2E19292A2E0929352
:100210000201D2AA82D2978A821201DD90000202E4
:100220000197AA82C2978A821201DD90000502011D
:1002300097C2A090001412019775823312022275A2
:100240008233120222758232120222758228120231
:100250002275820C12022275820112022290001471
:10026000020197AA82AB83ACF07402B523047DC06F
:1002700080027D808D82C002C003C00412022290E1
:100280000005120197D004D003D0027D007E00ED5E
:100290002AFFEE3BF88C018F82888389F0120636A4
:1002A000FF60208F82C002C003C004C005C00612D8
:1002B0000213D006D005D004D003D0020DBD00CF6C
:1002C0000E80CC3000248D028E03C3EA9410EB64C0
:1002D0008094805015758220C002C003120213D092
:1002E00003D0020ABA00E30B80E0228582278583CF
:1002F0002885F029F52A1207EAAE82AF838E028F95
:1003000003EA4B7006752B30020405753B00EA4B7F
:100310006049E53B242BF8751C0AE4F51D8A828BA5
:1003200083C002C003C006C007C000120771AD82BF
:10033000D000D007D006D003D00274302DF6751C43
:100340000AE4F51D8A828B83C006C007120652AAF2
:1003500082AB83D007D006053B80B3C006C007C080
:1003600027C028C029C02A90000075F0C874421226
:10037000067BAC82AD83AEF0FFE58124FCF5818C79
:10038000828D838EF0EFC006C0071207EAAC82AD03
:1003900083D007D0068E1C8F1D900064C004C0055A
:1003A00012071EAE82AF83D005D004ECC39EFAEDD7
:1003B0009FFBD007D006AC3B7D02EC242BF8751CCC
:1003C0000AE4F51D8A828B83C002C003C004C00505
:1003D000C000120771AE82D000D005D004D003D087
:1003E0000274302EF6751C0AE4F51D8A828B83C0D8
:1003F00004C005120652AA82AB83D005D0040CDDDE
:10040000B9EC14F53CE53C24FEFB7C00EB20E71E38
:10041000EC2524FDE43525FEAF26EB242BF88602DF
:100420008D828E838FF0EA1207D10C1B80DEEC25C3
:1004300024FAE43525FBAD268A828B838DF0742E59
:100440001207D1EC3395E0FA74012CFBE43AFDEB92
:100450002524FBED3525FDAE26E53C242BF886074B
:100460008B828D838EF0EF1207D174022CFBE43A5D
:10047000FDEB2524FBED3525FDAE26E53C14242BB4
:10048000F886078B828D838EF0EF1207D174032CD0
:10049000FCE43AFAEC2524FCEA3525FAAB268C82FA
:1004A0008A838BF0E40207D11201C9120231900154
:1004B000F41201977474C0E07400C0E07480C0E06E
:1004C00012075015811581158174F2C0E07400C0C7
:1004D000E07480C0E074E6C0E07400C0E07480C0E6
:1004E000E074C7C0E07400C0E07480C0E07479C0FC
:1004F000E07400C0E07480C0E0120750E58124F48D
:10050000F581758A00758C00752200C28DD28C90A1
:1005100003E8120197C28CAA227B008B058A047B18
:10052000007A00AE8C7F00780088018F008E07E48F
:100530002AFAEF3BFBE83CFCE93DFDAE8AE4FF33E1
:1005400095E0F8F9EE2AFAEF3BFBE83CFCE93DFDCB
:100550008A828B838CF0C002C003C004C0051207DE
:10056000BEAE82AF83A8F0F9C006C007C000C001CC
:10057000900C6275F08A743E12067BAE82AF83A83F
:10058000F0F9E58124FCF581E4C0E0C0E0747AC0B4
:10059000E07444C0E08E828F8388F0E91207F5AEE4
:1005A00082AF83A8F0F9E58124FCF581C006C0077D
:1005B000C000C00190000075F080743F1207F5AED6
:1005C00082AF83A8F0F9E58124FCF581C006C0075D
:1005D000C000C00190000075F07A744412067BAE32
:1005E00082AF83A8F0F9E58124FCF581C006C0073D
:1005F000C000C00174FBC0E07400C0E07480C0E0C3
:10060000120750E58124F9F5817402C0E07401C03D
:10061000E07480C0E0120750E58124F9F581740C84
:10062000C0E07401C0E07480C0E01207501581156D
:1006300081158102050220F71430F6148883A88200
:1006400020F507E6A88375830022E280F7E4932271
:10065000E0227A10E4FBFCE58225E0F582E58333B5
:10066000F583EB33FBEC33FCEB951CF5F0EC951DBF
:100670004006FCABF0438201DADD22120996BC0091
:1006800003020935EF60FA30D502B2D1E583B4FF39
:100690000302094BE582B4FF0302094B258340079F
:1006A0002482400B020935248314500302094BF5C0
:1006B00082EA8DF0A4A8F0EA8EF0A428F8E435F0E0
:1006C000F9EB8DF0A428E935F0F9E433CA8FF0A4F2
:1006D00029F9EA35F0FAEBF88EF0A429F9EA35F0B9
:1006E000FAE433FBEC8DF0A429F9EA35F0FAE43BA7
:1006F000FBE88FF0A42AFAEB35F0FBE433CCFD8E57
:10070000F0A42AFAEB35F0FBE43CFCED8FF0A42BCF
:10071000FBEC35F0FC20E703120963020914E582C3
:10072000851CF0A4C582C0F0851DF0A4D0F025F092
:10073000C583851CF0A42583F5832202135085828E
:100740001885831985F01A85091B90073B020DA3B4
:10075000C008858108E50824FBF51BE50824FBF8A3
:10076000861808861908861A90073B120DA3D00830
:1007700022E51C451D60467A01E51C25E0F51CE5D7
:100780001D334012F51DE582951CE583951D400340
:100790000A80E6C3E51D13F51DE51C13F51CC3E532
:1007A00082951CF5F0E583951D4005F58385F08263
:1007B000C3E51D13F51DE51C13F51CDAE122FCABA6
:1007C000F0AA83A982749EC2D1F58212096302093C
:1007D0001420F71030F6118883A88220F507F6A8B8
:1007E0008375830022F280F7F0227F8E121367F563
:1007F0008385F0822212099630D502B2D1BF00095A
:10080000BC000302095802094BBC0003020935E58C
:1008100083B4FF0BE582B4FF03020958020935E5F2
:1008200082B4FF0302094BC395835007247F400B1A
:10083000020935248014500302094BC0E0E4CCCBFC
:10084000CAF98D1C8E1D8F1EEF54F0C4F51F7583E1
:1008500006851FF0EB84F582E9C4F9EAC4FAEBC41B
:10086000FBEC540FC47803D6FC18EBD6FB18EAD681
:10087000FA8582F0EDA4A8F0FD8582F0EEA428FEB2
:10088000E435F0F88582F0EFA428FFE435F0F8E9CC
:100890009DF9EA9EFAEB9FFBEC98FCAD1CAE1DAFF8
:1008A0001E30E7101582E92DF9EA3EFAEB3FFBE432
:1008B0003CFC80EDC082D58398C3E933F9EA33FA72
:1008C000EB33FBEC33FCC3E99DEA9EEB9FEC940019
:1008D000B3E413F9D002D0E0C44AFAD003D0E0C4A4
:1008E0004BFBD004D0E0F5F0540FC44CFCD0821583
:1008F0008230F40FD3EC13FCEB13FBEA13FAE91389
:10090000F90582E930E70A74012AFAE43BFBE43C8A
:10091000FC02092CB98003EA13B34010EA2401FA5F
:10092000E43BFBE43CFC50047C800582BC000EBB35
:10093000000BBA0008E4F5F0F583F58222A2D1E5B8
:1009400082138CF092F78B838A8222E4F583F582FE
:1009500075F080F4A2D11322E4F583F58275F0C01E
:10096000747F227804EC7011E58224F8500AF58235
:10097000E4C9CACBFCD8EF22EC7820058220E7132B
:10098000D5820122C3E933F9EA33FAEB33FBEC33C6
:10099000FCD8EA158222AA82AB83A2F73392D160F7
:1009A00002D2F7F582ACF0E58124F9F8E6FD08E61D
:1009B000FE0886F008E6A2F73392D56002D2F7F57A
:1009C00083AFF022AA8274D5C0E07409C0E0C00AE7
:1009D000C00B8A82220511E4B51102051222AA82F7
:1009E00074302AFA24C6500A74072AFA30010343E5
:1009F00002208A820209C4E582FAC4540FF582C03B
:100A0000021209DED002740F5AF5820209DEAA0C26
:100A1000AB0DAC0EAD0FAE10751720EE2EFEED2314
:100A20005401FF4206EA2AFAEB33FBEC33FCED33C8
:100A3000FDC3EE95134008EEC39513FE430201D5A6
:100A400017D98A0C8B0D8C0E8D0F8E10227864E6D0
:100A500024D075F00AA4FA7865E624D02AFA7863DF
:100A60008603BB2D04C3E49AFA751301C3E46480C2
:100A70008AF063F08095F050297517038A0374F6A5
:100A80002517401C0513E517142458F8E5172458BA
:100A9000F98704A604772E1BEBFA6004051780DEA5
:100AA0008B02EA30E70D78598603785AA603785905
:100AB000762E0AE515600AE51504FB2513F513806B
:100AC00005300C02051378588603E4BB2D0104FBA6
:100AD00070062007033008020513300503020B944B
:100AE000300657EB600C75822DC0021209C4D0028B
:100AF000801C30070C75822BC0021209C4D0028002
:100B00000D30080A758220C0021209C4D00278593B
:100B10008604BC2E0C758230C0021209C4D00215A6
:100B200014AC141514C3E5139C4003020BD8758252
:100B300030C0021209C4D00280E7AC141514C3E51A
:100B4000139C500C758220C0021209C4D00280EAA6
:100B500078588604BC2D0C75822DC0021209C4D0B1
:100B600002801C30070C75822BC0021209C4D0020F
:100B7000800D30080A758220C0021209C4D00278A4
:100B8000598604BC2E52758230C0021209C4D002AC
:100B900015148044EB600E75822DC0021209C4D07A
:100BA000021514802030070E75822BC0021209C472
:100BB000D0021514800F30080C758220C002120973
:100BC000C4D002151478598603BB2E0C758230C030
:100BD000021209C4D0021514751701C20EE51724BC
:100BE00058F88603BB4503020C95BB2E348A03C319
:100BF000E464808BF063F08095F0500F758230C014
:100C0000031209C4D0031B8B0280E48B02D20EE5D1
:100C1000157038200C03020C9575822E1209C480C1
:100C200074300E278A03EB30E71FC3E46480851518
:100C3000F063F08095F0500C758230C0031209C447
:100C4000D00315150B8B0280DD8B02300E0EC3E432
:100C500064808515F063F08095F05021E5172458E5
:100C6000F886038B82C0021209C4D002300E0EE552
:100C7000172458F88603BB2E02800215151514C3DD
:100C8000E464808515F063F08095F04003200E0544
:100C90000517020BDDC3E464808515F063F08095D1
:100CA000F0500A7582301209C4151580E830050F1E
:100CB000AA141514EA60087582201209C480F12272
:100CC000E5157003300C0D74072515FAE514C39A69
:100CD000F5148006E51424FAF51475170078588683
:100CE00002BA2B0F20070C785876202008057517BC
:100CF000010514200519AA14C3E464808AF063F086
:100D00008095F0500A7582201209C4151480E7C23C
:100D10000EE5172458F88602BA00028069BA451F0A
:100D20003001027665C3E464808515F063F0809538
:100D3000F0500A7582301209C4151580E8D20EC32E
:100D4000E5179402E433FA7014EA700EC3E4648089
:100D50008515F063F08095F04003300E16E51724FA
:100D600058F886028A821209C4E51724FD5012152C
:100D700015800E7402B51709300C0675822E120903
:100D8000C40517020D11300519AA14C3E464808A42
:100D9000F063F08095F0500A7582201209C4151492
:100DA00080E72285820A85830BE4F511F512AA18E3
:100DB000AB19AC1A8A828B838CF0120636FD740153
:100DC0002AF518E43BF5198C1AEDFA700302134961
:100DD000BA25028003021341C205C206C207C20837
:100DE000C209C20AC20BC20CC202C203C2047513FA
:100DF000007514007515FFAB18AC19AD1A8B828CF9
:100E0000838DF0120636FAA3AB82AC838B188C1953
:100E10008D1ABA25078A821209C480928A06BE30CA
:100E200000402E8A06EE24C6402774FFB51513E550
:100E30001475F00AA4FEEA24D02EF51470BFD20671
:100E400080BBE51575F00AA4FEEA24D02EF51580C6
:100E5000ACBA2E0A74FFB515A4751500809F8A06DA
:100E6000BE6100400E8A06EE248540075302DFD2A1
:100E7000018002C201BA20028075BA2303020EFE6D
:100E8000BA2A03020F03BA2B02805FBA2D028055E3
:100E9000BA4202805FBA4303020F48BA4403021009
:100EA00083BA450302109DBA4603021099BA47035C
:100EB0000210A1BA4903021083BA4C02803BBA4E19
:100EC000030210A5BA4F0302108ABA500302101C85
:100ED000BA5303020F6CBA550302108FBA580302BB
:100EE00010940210CFD205020DFDD207020DFDD2E3
:100EF00008020DFDD20A020DFDD20B020DFDD20C2F
:100F0000020DFD74FFB51520300A0BE51B14F8889F
:100F10001B8614020DFDE51B24FEF8881B860608BF
:100F20008607188E14020DFD300A0BE51B14F88895
:100F30001B8615020DFDE51B24FEF8881B8606089E
:100F40008607188E15020DFD300A0AE51B14F88875
:100F50001B8602800FE51B24FEF8881B860308868B
:100F600004188B028A821209C40210D4E51B24FDE6
:100F7000F8881B860308860408860518188B0C8CD5
:100F80000D8D0E8B828C838DF01214ABAB82AC83F3
:100F90008B1674FFB5150385161520051DC3E516C0
:100FA00095145016E514C39516F514AB141514EBEF
:100FB00060087582201209C480F1850C82850D833A
:100FC000850EF0120636FBFA6029AB151515C3E441
:100FD00064808BF063F08095F050188A821209C407
:100FE000AB0CAC0DAD0E0BBB00010C8B0C8C0D8D46
:100FF0000E80C72005030210D4C3E51695144003E4
:101000000210D4E514C39516F514AB141514EB7047
:10101000030210D47582201209C480EEE51B24FD62
:10102000F8881B860308860408860518188B0C8C24
:101030000D8D0EE50EFB30E7047A438013EB546010
:1010400060047A50800AEB30E6047A4980027A58CC
:101050008A82C0021209C475823A1209C4758230AC
:101060001209C47582781209C4D002BA4902800BF1
:10107000BA50028006850D821209F7850C8212098A
:10108000F78051D20975130A804A75130880457597
:10109000130A8040751310803BD2028037D2038040
:1010A00033D204802FE51B24FDF8881B86030886B5
:1010B0000408860518188B0C8C0D8D0E8B828C8382
:1010C0008DF0E5111207D1A3E5121207D180058A30
:1010D000821209C4200206200303300470E51B2499
:1010E000FCF8881B8603088604088605088606180F
:1010F00018188B0C8C0D8D0E8E0FE50CE50DE50E82
:10110000E50F8B828C838DF0EE12138C74FFB51576
:1011100003751506300427747F550FFB8B10E510FF
:10112000EB2BFB8B10E50E30E70674014510F51034
:10113000E51024684006749925104002D20330035C
:1011400006120CC0020DAE120A4D020DAEE5137070
:1011500003020DAE7B5D300A2BE51B14F8881BE6FD
:10116000FC3395E0FDFEFF8C0C8D0D8E0E8F0F2055
:10117000095EAC0C7D007E007F008C0C8D0D8E0E08
:101180008F0F804C300B1FE51B24FCF8881B860456
:101190000886050886060886071818188C0C8D0D19
:1011A0008E0E8F0F802AE51B24FEF8881B8604080C
:1011B000860518ED3395E0FEFF8C0C8D0D8E0E8F9D
:1011C0000F20090CAC0CAD0D7E007F008E0E8F0F32
:1011D000300C43E50C450D450E450F60397408B5DC
:1011E000130C758230C0031209C4D0038028741018
:1011F000B51323758230C0031209C4D00330010C2B
:10120000758278C0031209C4D003800A758258C061
:10121000031209C4D003300925AC0CAD0DAE0EE5A8
:101220000FFF30E717C3E49CFCE49DFDE49EFEE461
:101230009FFF8C0C8D0D8E0E8F0F8002C2097516CC
:1012400000D20D8B00751000C000120A0ED00020D5
:101250000D0DE510C4FCE6FD4CF61888038002A6CF
:10126000100516B20DE50C450D450E450F70D688DC
:1012700003E514700375140120061A200517E516FE
:1012800004FCC39514500E758220C0031209C4D00B
:1012900003151480E930090E75822DC0031209C4AC
:1012A000D00315148024E516602030070E75822BBC
:1012B000C0031209C4D0031514800F30080C7582C6
:1012C00020C0031209C4D003151420051EAC141548
:1012D00014C3E5169C50273006047C3080027C2025
:1012E0008C82C0031209C4D00380E2C3E5169514B2
:1012F0005009E514C39516F51480037514008B008E
:10130000AB161516EB6022B20D200D0A08E6C45488
:101310000FFB8B1080078603740F5BF5108510821E
:10132000C0001209DED00080D7200503020DAEAB4D
:10133000141514EB7003020DAE7582201209C480DF
:10134000EE8A821209C4020DAE85118285128322B3
:10135000AA82BA0A0810990280FB75990D109902A9
:1013600080FB8A99227F9E1214D330D10302093563
:10137000C3EF9582500974FFF5F0F583F582227969
:10138000001214E589828A838BF0EC22C0E0F845D4
:1013900082458345F07009F5F0FBFCFDFE02145A0E
:1013A000E823A2F792E0F8A982AA83D2F7ABF07CF7
:1013B000007E07C3749798404074FF2EFE740A891C
:1013C000F0A4F985F082740A8AF0A4FA85F0837497
:1013D0000A8BF0A4FB740529F9EA3582FAEB358310
:1013E000FB740035F0FCC3EC13FCEB13FBEA13FABF
:1013F000E913F908EC70EF80BAE8C3947FF88B83A7
:101400008EF0E4FBFCFDFEFF08C3E933F9EA33FA92
:10141000E58333F583EB3BD4FBEC3CD4FCED3DD4CE
:10142000FDEE3ED4FEEF3FD4FF602D05F074052B9A
:10143000D4FBE43CD4FCE43DD4FDE43ED4FEE43FE4
:10144000D4FF758204C3EF13FFEE13FEED13FDEC22
:1014500013FCEB13FBD582EDD8AF7858D0E020E732
:1014600004762B8002762D087906E7C4540F4430A9
:10147000F608B90603762E08E7540F4430F608192B
:10148000B902E7764508E5F020E704762B8004767C
:101490002DF4040875F00A844430F608E5F0443071
:1014A000F608E4F690005875F04022AA82AB83ACAF
:1014B000F07D007E008A828B838CF0120636FFA3BB
:1014C000AA82AB83EF60070DBD00EA0E80E78D8234
:1014D0008E8322AA82AB83A2F73392D16002D2F725
:1014E000F582ACF0226040F82582500274FFF5824C
:1014F000E824F8501ECCCBCAF9E4CC24F85014CB25
:10150000CAF9E4CB24F8500BCAF9E4CA24F8500312
:1015100079002224086010F8C3EC13FCEB13FBEAFB
:1015200013FAE913F9D8F1220000000000000000CE
:00000001FF
